{
  "contractName": "TodoList",
  "abi": [
    {
      "inputs": [
        {
          "internalType": "uint256",
          "name": "",
          "type": "uint256"
        }
      ],
      "name": "todoList",
      "outputs": [
        {
          "internalType": "string",
          "name": "todo",
          "type": "string"
        },
        {
          "internalType": "uint256",
          "name": "timestamp",
          "type": "uint256"
        },
        {
          "internalType": "bool",
          "name": "isDeleted",
          "type": "bool"
        }
      ],
      "stateMutability": "view",
      "type": "function",
      "constant": true
    },
    {
      "inputs": [
        {
          "internalType": "string",
          "name": "task",
          "type": "string"
        }
      ],
      "name": "addItem",
      "outputs": [],
      "stateMutability": "nonpayable",
      "type": "function"
    },
    {
      "inputs": [
        {
          "internalType": "uint256",
          "name": "index",
          "type": "uint256"
        }
      ],
      "name": "deleteItem",
      "outputs": [],
      "stateMutability": "nonpayable",
      "type": "function"
    },
    {
      "inputs": [],
      "name": "returnTodos",
      "outputs": [
        {
          "components": [
            {
              "internalType": "string",
              "name": "todo",
              "type": "string"
            },
            {
              "internalType": "uint256",
              "name": "timestamp",
              "type": "uint256"
            },
            {
              "internalType": "bool",
              "name": "isDeleted",
              "type": "bool"
            }
          ],
          "internalType": "struct TodoList.todo[]",
          "name": "",
          "type": "tuple[]"
        }
      ],
      "stateMutability": "view",
      "type": "function",
      "constant": true
    }
  ],
  "bytecode": "0x608060405234801561001057600080fd5b50610b59806100206000396000f3fe608060405234801561001057600080fd5b506004361061004c5760003560e01c806327e9f2941461005157806358c2d4691461006d578063654fc8331461009f5780637efeb6c2146100bb575b600080fd5b61006b600480360381019061006691906104e7565b6100d9565b005b61008760048036038101906100829190610566565b610167565b6040516100969392919061063c565b60405180910390f35b6100b960048036038101906100b49190610566565b610236565b005b6100c3610277565b6040516100d091906107f4565b60405180910390f35b6000604051806060016040528083815260200142815260200160001515815250908060018154018082558091505060019003906000526020600020906003020160009091909190915060008201518160000190816101379190610a22565b506020820151816001015560408201518160020160006101000a81548160ff021916908315150217905550505050565b6000818154811061017757600080fd5b906000526020600020906003020160009150905080600001805461019a90610845565b80601f01602080910402602001604051908101604052809291908181526020018280546101c690610845565b80156102135780601f106101e857610100808354040283529160200191610213565b820191906000526020600020905b8154815290600101906020018083116101f657829003601f168201915b5050505050908060010154908060020160009054906101000a900460ff16905083565b60016000828154811061024c5761024b610af4565b5b906000526020600020906003020160020160006101000a81548160ff02191690831515021790555050565b60606000805480602002602001604051908101604052809291908181526020016000905b8282101561038457838290600052602060002090600302016040518060600160405290816000820180546102ce90610845565b80601f01602080910402602001604051908101604052809291908181526020018280546102fa90610845565b80156103475780601f1061031c57610100808354040283529160200191610347565b820191906000526020600020905b81548152906001019060200180831161032a57829003601f168201915b50505050508152602001600182015481526020016002820160009054906101000a900460ff1615151515815250508152602001906001019061029b565b50505050905090565b6000604051905090565b600080fd5b600080fd5b600080fd5b600080fd5b6000601f19601f8301169050919050565b7f4e487b7100000000000000000000000000000000000000000000000000000000600052604160045260246000fd5b6103f4826103ab565b810181811067ffffffffffffffff82111715610413576104126103bc565b5b80604052505050565b600061042661038d565b905061043282826103eb565b919050565b600067ffffffffffffffff821115610452576104516103bc565b5b61045b826103ab565b9050602081019050919050565b82818337600083830152505050565b600061048a61048584610437565b61041c565b9050828152602081018484840111156104a6576104a56103a6565b5b6104b1848285610468565b509392505050565b600082601f8301126104ce576104cd6103a1565b5b81356104de848260208601610477565b91505092915050565b6000602082840312156104fd576104fc610397565b5b600082013567ffffffffffffffff81111561051b5761051a61039c565b5b610527848285016104b9565b91505092915050565b6000819050919050565b61054381610530565b811461054e57600080fd5b50565b6000813590506105608161053a565b92915050565b60006020828403121561057c5761057b610397565b5b600061058a84828501610551565b91505092915050565b600081519050919050565b600082825260208201905092915050565b60005b838110156105cd5780820151818401526020810190506105b2565b60008484015250505050565b60006105e482610593565b6105ee818561059e565b93506105fe8185602086016105af565b610607816103ab565b840191505092915050565b61061b81610530565b82525050565b60008115159050919050565b61063681610621565b82525050565b6000606082019050818103600083015261065681866105d9565b90506106656020830185610612565b610672604083018461062d565b949350505050565b600081519050919050565b600082825260208201905092915050565b6000819050602082019050919050565b600082825260208201905092915050565b60006106c282610593565b6106cc81856106a6565b93506106dc8185602086016105af565b6106e5816103ab565b840191505092915050565b6106f981610530565b82525050565b61070881610621565b82525050565b6000606083016000830151848203600086015261072b82826106b7565b915050602083015161074060208601826106f0565b50604083015161075360408601826106ff565b508091505092915050565b600061076a838361070e565b905092915050565b6000602082019050919050565b600061078a8261067a565b6107948185610685565b9350836020820285016107a685610696565b8060005b858110156107e257848403895281516107c3858261075e565b94506107ce83610772565b925060208a019950506001810190506107aa565b50829750879550505050505092915050565b6000602082019050818103600083015261080e818461077f565b905092915050565b7f4e487b7100000000000000000000000000000000000000000000000000000000600052602260045260246000fd5b6000600282049050600182168061085d57607f821691505b6020821081036108705761086f610816565b5b50919050565b60008190508160005260206000209050919050565b60006020601f8301049050919050565b600082821b905092915050565b6000600883026108d87fffffffffffffffffffffffffffffffffffffffffffffffffffffffffffffffff8261089b565b6108e2868361089b565b95508019841693508086168417925050509392505050565b6000819050919050565b600061091f61091a61091584610530565b6108fa565b610530565b9050919050565b6000819050919050565b61093983610904565b61094d61094582610926565b8484546108a8565b825550505050565b600090565b610962610955565b61096d818484610930565b505050565b5b818110156109915761098660008261095a565b600181019050610973565b5050565b601f8211156109d6576109a781610876565b6109b08461088b565b810160208510156109bf578190505b6109d36109cb8561088b565b830182610972565b50505b505050565b600082821c905092915050565b60006109f9600019846008026109db565b1980831691505092915050565b6000610a1283836109e8565b9150826002028217905092915050565b610a2b82610593565b67ffffffffffffffff811115610a4457610a436103bc565b5b610a4e8254610845565b610a59828285610995565b600060209050601f831160018114610a8c5760008415610a7a578287015190505b610a848582610a06565b865550610aec565b601f198416610a9a86610876565b60005b82811015610ac257848901518255600182019150602085019450602081019050610a9d565b86831015610adf5784890151610adb601f8916826109e8565b8355505b6001600288020188555050505b505050505050565b7f4e487b7100000000000000000000000000000000000000000000000000000000600052603260045260246000fdfea264697066735822122070ed55ddb5675c811ea579d126b7739d7882fc20aa828ce87823c2c9f4802a7d64736f6c63430008130033",
  "immutableReferences": {},
  "source": "//SPDX-License-Identifier: MIT\r\n\r\npragma solidity 0.8.19;\r\n\r\ncontract TodoList{\r\n\r\n    struct todo{\r\n        string todo;\r\n        uint timestamp;\r\n        bool isDeleted;\r\n    }\r\n\r\n    todo[] public todoList;\r\n\r\n    function addItem(string memory task) public  {\r\n        todoList.push(todo(task, block.timestamp, false));\r\n    }\r\n\r\n    function deleteItem(uint index) public {\r\n        todoList[index].isDeleted = true;\r\n    }\r\n\r\n    function returnTodos() public view returns (todo[] memory){\r\n        return todoList;\r\n    }\r\n}",
  "sourcePath": "C:\\Users\\amito\\OneDrive\\Desktop\\BLOCKCHAIN_TODO-APP\\contracts\\TodoList.sol",
  "compiler": {
    "name": "solc",
    "version": "0.8.19+commit.7dd6d404.Emscripten.clang"
  },
  "schemaVersion": "3.4.13",
  "updatedAt": "2023-05-10T19:04:16.893Z",
  "networkType": "ethereum",
  "devdoc": {
    "kind": "dev",
    "methods": {},
    "version": 1
  },
  "userdoc": {
    "kind": "user",
    "methods": {},
    "version": 1
  }
}